:10F80000B240805A200131406E02B0120EF8D2424E
:10F81000FF105700D242FE105600C2432100F243AF
:10F820002200B012EEF8B01202F932D23E400500CA
:10F83000B0128EF81E83FC233E400500B01278F80B
:10F84000B012E2F8B012B8F81E83FC23B01278F8B8
:10F85000B012E2F8EB3F09E959427F029249700287
:10F860007201D24972022100695279900C00012084
:10F870004943C2497F020013B240DC057402B01252
:10F88000E2F8B240DC057802B012E2F83041B24052
:10F89000E8037402B012E2F8B240E8037802B01252
:10F8A000E2F8B240D0077402B012E2F8B240D007DA
:10F8B0007802B012E2F83041B240E8037802B012A8
:10F8C000E2F8B240E8037402B012E2F8B240D007A6
:10F8D0007802B012E2F8B240D0077402B012E2F837
:10F8E00030410A123A431A83FE233A413041B24072
:10F8F000204E7201B24010006201B2401402600159
:10F900003041B240204E7002B240DC057402B24079
:10F91000DC057802C2437202E2437602E2427A02D6
:06F92000C2437F023041EA
:02FFF20056F8BF
:02FFFE0000F809
:00000001FF
